{
  "contractName": "RentContract",
  "abi": [
    {
      "inputs": [
        {
          "internalType": "address payable",
          "name": "_landlord",
          "type": "address"
        }
      ],
      "stateMutability": "nonpayable",
      "type": "constructor"
    },
    {
      "stateMutability": "payable",
      "type": "fallback"
    },
    {
      "inputs": [
        {
          "internalType": "address",
          "name": "",
          "type": "address"
        }
      ],
      "name": "balances",
      "outputs": [
        {
          "internalType": "uint256",
          "name": "",
          "type": "uint256"
        }
      ],
      "stateMutability": "view",
      "type": "function"
    },
    {
      "inputs": [],
      "name": "landlord",
      "outputs": [
        {
          "internalType": "address payable",
          "name": "",
          "type": "address"
        }
      ],
      "stateMutability": "view",
      "type": "function"
    },
    {
      "inputs": [],
      "name": "owner",
      "outputs": [
        {
          "internalType": "address",
          "name": "",
          "type": "address"
        }
      ],
      "stateMutability": "view",
      "type": "function"
    },
    {
      "inputs": [
        {
          "internalType": "uint256",
          "name": "",
          "type": "uint256"
        }
      ],
      "name": "rentContracts",
      "outputs": [
        {
          "internalType": "bool",
          "name": "isOccupied",
          "type": "bool"
        },
        {
          "internalType": "address",
          "name": "tenant",
          "type": "address"
        },
        {
          "internalType": "bool",
          "name": "opPayed",
          "type": "bool"
        },
        {
          "internalType": "uint256",
          "name": "opDaysLeft",
          "type": "uint256"
        },
        {
          "internalType": "uint256",
          "name": "opAmountLeft",
          "type": "uint256"
        },
        {
          "internalType": "uint256",
          "name": "paymentDate",
          "type": "uint256"
        },
        {
          "internalType": "uint256",
          "name": "area",
          "type": "uint256"
        },
        {
          "internalType": "uint256",
          "name": "monthlyPrice",
          "type": "uint256"
        }
      ],
      "stateMutability": "view",
      "type": "function"
    },
    {
      "inputs": [],
      "name": "today",
      "outputs": [
        {
          "internalType": "uint256",
          "name": "",
          "type": "uint256"
        }
      ],
      "stateMutability": "view",
      "type": "function"
    },
    {
      "stateMutability": "payable",
      "type": "receive"
    },
    {
      "inputs": [
        {
          "components": [
            {
              "internalType": "bool",
              "name": "isOccupied",
              "type": "bool"
            },
            {
              "internalType": "address",
              "name": "tenant",
              "type": "address"
            },
            {
              "internalType": "bool",
              "name": "opPayed",
              "type": "bool"
            },
            {
              "internalType": "uint256",
              "name": "opDaysLeft",
              "type": "uint256"
            },
            {
              "internalType": "uint256",
              "name": "opAmountLeft",
              "type": "uint256"
            },
            {
              "internalType": "uint256",
              "name": "paymentDate",
              "type": "uint256"
            },
            {
              "internalType": "uint256",
              "name": "area",
              "type": "uint256"
            },
            {
              "internalType": "uint256",
              "name": "monthlyPrice",
              "type": "uint256"
            }
          ],
          "internalType": "struct RentContract.rentInfo",
          "name": "_info",
          "type": "tuple"
        }
      ],
      "name": "createRentContract",
      "outputs": [],
      "stateMutability": "nonpayable",
      "type": "function"
    },
    {
      "inputs": [
        {
          "components": [
            {
              "internalType": "bool",
              "name": "isOccupied",
              "type": "bool"
            },
            {
              "internalType": "address",
              "name": "tenant",
              "type": "address"
            },
            {
              "internalType": "bool",
              "name": "opPayed",
              "type": "bool"
            },
            {
              "internalType": "uint256",
              "name": "opDaysLeft",
              "type": "uint256"
            },
            {
              "internalType": "uint256",
              "name": "opAmountLeft",
              "type": "uint256"
            },
            {
              "internalType": "uint256",
              "name": "paymentDate",
              "type": "uint256"
            },
            {
              "internalType": "uint256",
              "name": "area",
              "type": "uint256"
            },
            {
              "internalType": "uint256",
              "name": "monthlyPrice",
              "type": "uint256"
            }
          ],
          "internalType": "struct RentContract.rentInfo",
          "name": "_newInfo",
          "type": "tuple"
        },
        {
          "internalType": "uint256",
          "name": "_contractId",
          "type": "uint256"
        }
      ],
      "name": "editRentContract",
      "outputs": [],
      "stateMutability": "nonpayable",
      "type": "function"
    },
    {
      "inputs": [
        {
          "internalType": "uint256",
          "name": "_contractId",
          "type": "uint256"
        }
      ],
      "name": "deleteRentContract",
      "outputs": [
        {
          "components": [
            {
              "internalType": "bool",
              "name": "isOccupied",
              "type": "bool"
            },
            {
              "internalType": "address",
              "name": "tenant",
              "type": "address"
            },
            {
              "internalType": "bool",
              "name": "opPayed",
              "type": "bool"
            },
            {
              "internalType": "uint256",
              "name": "opDaysLeft",
              "type": "uint256"
            },
            {
              "internalType": "uint256",
              "name": "opAmountLeft",
              "type": "uint256"
            },
            {
              "internalType": "uint256",
              "name": "paymentDate",
              "type": "uint256"
            },
            {
              "internalType": "uint256",
              "name": "area",
              "type": "uint256"
            },
            {
              "internalType": "uint256",
              "name": "monthlyPrice",
              "type": "uint256"
            }
          ],
          "internalType": "struct RentContract.rentInfo[]",
          "name": "",
          "type": "tuple[]"
        }
      ],
      "stateMutability": "nonpayable",
      "type": "function"
    },
    {
      "inputs": [
        {
          "internalType": "uint256",
          "name": "_contractId",
          "type": "uint256"
        },
        {
          "internalType": "bool",
          "name": "_payOpNow",
          "type": "bool"
        }
      ],
      "name": "signContract",
      "outputs": [],
      "stateMutability": "payable",
      "type": "function"
    },
    {
      "inputs": [
        {
          "internalType": "uint256",
          "name": "_contractId",
          "type": "uint256"
        }
      ],
      "name": "payOffOp",
      "outputs": [],
      "stateMutability": "nonpayable",
      "type": "function"
    },
    {
      "inputs": [
        {
          "internalType": "uint256",
          "name": "_contractId",
          "type": "uint256"
        }
      ],
      "name": "terminateContract",
      "outputs": [],
      "stateMutability": "nonpayable",
      "type": "function"
    },
    {
      "inputs": [
        {
          "internalType": "uint256",
          "name": "_contractId",
          "type": "uint256"
        }
      ],
      "name": "writeOffRent",
      "outputs": [
        {
          "internalType": "uint256",
          "name": "",
          "type": "uint256"
        }
      ],
      "stateMutability": "nonpayable",
      "type": "function"
    },
    {
      "inputs": [
        {
          "internalType": "address",
          "name": "_to",
          "type": "address"
        }
      ],
      "name": "deposit",
      "outputs": [],
      "stateMutability": "payable",
      "type": "function"
    },
    {
      "inputs": [
        {
          "internalType": "address",
          "name": "_user",
          "type": "address"
        },
        {
          "internalType": "uint256",
          "name": "_value",
          "type": "uint256"
        }
      ],
      "name": "setBalance",
      "outputs": [],
      "stateMutability": "nonpayable",
      "type": "function"
    },
    {
      "inputs": [
        {
          "internalType": "address",
          "name": "_to",
          "type": "address"
        },
        {
          "internalType": "uint256",
          "name": "_amount",
          "type": "uint256"
        }
      ],
      "name": "withdraw",
      "outputs": [],
      "stateMutability": "payable",
      "type": "function"
    }
  ],
  "bytecode": "0x6080604052601f60035534801561001557600080fd5b5060405161179b38038061179b8339810160408190526100349161006c565b600160008190558054336001600160a01b031991821617909155600280549091166001600160a01b039290921691909117905561009c565b60006020828403121561007e57600080fd5b81516001600160a01b038116811461009557600080fd5b9392505050565b6116f0806100ab6000396000f3fe6080604052600436106100e05760003560e01c80638369667e11610084578063e30443bc11610056578063e30443bc146102c2578063f17a1d21146102e2578063f340fa0114610302578063f3fef3a31461031557005b80638369667e146102345780638da5cb5b14610254578063b74e452b1461028c578063dc1997ea146102a257005b80633db168d8116100bd5780633db168d8146101695780633e5132d3146101965780634ed303b4146101a95780636f0ba3621461021457005b806325741a59146100e9578063263e3d5d1461010957806327e235e31461012957005b366100e757005b005b3480156100f557600080fd5b506100e76101043660046114fd565b610328565b34801561011557600080fd5b506100e76101243660046114fd565b610622565b34801561013557600080fd5b50610156610144366004611467565b60046020526000908152604090205481565b6040519081526020015b60405180910390f35b34801561017557600080fd5b506101896101843660046114fd565b6107db565b6040516101609190611542565b6100e76101a4366004611516565b610a5e565b3480156101b557600080fd5b506101c96101c43660046114fd565b610d25565b6040805198151589526001600160a01b039097166020890152941515958701959095526060860192909252608085015260a084015260c083019190915260e082015261010001610160565b34801561022057600080fd5b506100e761022f3660046114b3565b610d85565b34801561024057600080fd5b506100e761024f3660046114d0565b610f28565b34801561026057600080fd5b50600154610274906001600160a01b031681565b6040516001600160a01b039091168152602001610160565b34801561029857600080fd5b5061015660035481565b3480156102ae57600080fd5b50600254610274906001600160a01b031681565b3480156102ce57600080fd5b506100e76102dd366004611489565b610f7b565b3480156102ee57600080fd5b506101566102fd3660046114fd565b610fd6565b6100e7610310366004611467565b611151565b6100e7610323366004611489565b611274565b600260005414156103545760405162461bcd60e51b815260040161034b90611609565b60405180910390fd5b60026000908155600580548390811061036f5761036f6116a4565b6000918252602091829020604080516101008082018352600694909402909201805460ff80821615158086529582046001600160a01b031696850196909652600160a81b90049094161515908201526001830154606082015260028301546080820152600383015460a0820152600483015460c082015260059092015460e08301529091506104375760405162461bcd60e51b815260206004820152601460248201527310dbdb9d1c9858dd081a5cdb9d081cda59db995960621b604482015260640161034b565b8060400151156104805760405162461bcd60e51b815260206004820152601460248201527327b81030b63932b0b23c903830bcb2b21037b33360611b604482015260640161034b565b60208101516001600160a01b031633146104d05760405162461bcd60e51b8152602060048201526011602482015270139bdd081e5bdd5c8818dbdb9d1c9858dd607a1b604482015260640161034b565b608081015133600090815260046020526040902054101561052a5760405162461bcd60e51b8152602060048201526014602482015273496e73756666696369656e742062616c616e636560601b604482015260640161034b565b6080810151336000908152600460205260408120805490919061054e908490611677565b9091555050600060808201819052600160408301526060820152600580548291908490811061057f5761057f6116a4565b60009182526020808320845160069093020180549185015160408601511515600160a81b0260ff60a81b196001600160a01b0390921661010002610100600160a81b0319951515959095166001600160a81b031990941693909317939093179290921617815560608301516001808301919091556080840151600283015560a0840151600383015560c0840151600483015560e090930151600590910155555050565b600060058281548110610637576106376116a4565b6000918252602091829020604080516101008082018352600694909402909201805460ff808216151585529481046001600160a01b0316958401869052600160a81b90049093161515908201526001820154606082015260028201546080820152600382015460a0820152600482015460c082015260059091015460e08201529150331480156106c5575080515b6107115760405162461bcd60e51b815260206004820152601f60248201527f4e6f742074656e616e74206f7220756e7369676e656420636f6e747261637400604482015260640161034b565b60008082526020820181905260a08201526005805482919084908110610739576107396116a4565b6000918252602091829020835160069092020180549284015160408501511515600160a81b0260ff60a81b196001600160a01b0390921661010002610100600160a81b0319941515949094166001600160a81b0319909516949094179290921791909116919091178155606082015160018201556080820151600282015560a0820151600382015560c0820151600482015560e0909101516005909101555050565b6001546060906001600160a01b031633148061080157506002546001600160a01b031633145b61081d5760405162461bcd60e51b815260040161034b906115dc565b60055482106108595760405162461bcd60e51b815260206004820152600860248201526715dc9bdb99c81a5960c21b604482015260640161034b565b60055460009061086b90600190611677565b905060058181548110610880576108806116a4565b9060005260206000209060060201600584815481106108a1576108a16116a4565b600091825260209091208254600690920201805460ff19811660ff9384161515908117835584546001600160a81b0319909216610100600160a81b031990911617610100918290046001600160a01b031690910217808255835460ff60a81b19909116600160a81b91829004909316151502919091178155600180830154908201556002808301549082015560038083015490820155600480830154908201556005918201549082015580548290811061095d5761095d6116a4565b60009182526020808320600690920290910180546001600160b01b03191681556001810183905560028101839055600381018390556004810183905560059081018390558054604080518285028101850190915281815293919290919084015b82821015610a5157600084815260209081902060408051610100808201835260068702909301805460ff808216151584529481046001600160a01b031683870152600160a81b9004909316151591810191909152600180830154606083015260028301546080830152600383015460a0830152600483015460c083015260059092015460e0820152835290920191016109bd565b505050509150505b919050565b60026000541415610a815760405162461bcd60e51b815260040161034b90611609565b600260009081556005805484908110610a9c57610a9c6116a4565b6000918252602091829020604080516101008082018352600694909402909201805460ff80821615801586529582046001600160a01b031696850196909652600160a81b90049094161515908201526001830154606082015260028301546080820152600383015460a0820152600483015460c082015260059092015460e0830152909150610b6d5760405162461bcd60e51b815260206004820152601c60248201527f54686973206c6f7420697320616c7265616479206f6363757069656400000000604482015260640161034b565b60008160e001516003610b809190611658565b90508215610c485780341015610bd85760405162461bcd60e51b815260206004820152601860248201527f57726f6e672072656e74207061796d656e742076616c75650000000000000000604482015260640161034b565b604051309082156108fc029083906000818181858888f19350505050158015610c05573d6000803e3d6000fd5b50610c108134611677565b3360009081526004602052604081208054909190610c2f908490611640565b909155505060035460a083015260016040830152610c5f565b60035460a0830152600a6060830152608082018190525b600182523360208301526005805483919086908110610c8057610c806116a4565b60009182526020808320845160069093020180549185015160408601511515600160a81b0260ff60a81b196001600160a01b0390921661010002610100600160a81b0319951515959095166001600160a81b031990941693909317939093179290921617815560608301516001808301919091556080840151600283015560a0840151600383015560c0840151600483015560e0909301516005909101555550505050565b60058181548110610d3557600080fd5b600091825260209091206006909102018054600182015460028301546003840154600485015460059095015460ff80861697506001600160a01b0361010087041696600160a81b90960416949088565b6001546001600160a01b0316331480610da857506002546001600160a01b031633145b610dc45760405162461bcd60e51b815260040161034b906115dc565b60058054600181018255600091909152815160069091027f036b6384b5eca791c62761152d0c79bb0604c104a5fb6f4eb0703f3154bb3db081018054602085015160408601511515600160a81b0260ff60a81b196001600160a01b0390921661010002610100600160a81b0319961515969096166001600160a81b03199093169290921794909417939093169290921790915560608201517f036b6384b5eca791c62761152d0c79bb0604c104a5fb6f4eb0703f3154bb3db182015560808201517f036b6384b5eca791c62761152d0c79bb0604c104a5fb6f4eb0703f3154bb3db282015560a08201517f036b6384b5eca791c62761152d0c79bb0604c104a5fb6f4eb0703f3154bb3db382015560c08201517f036b6384b5eca791c62761152d0c79bb0604c104a5fb6f4eb0703f3154bb3db482015560e0909101517f036b6384b5eca791c62761152d0c79bb0604c104a5fb6f4eb0703f3154bb3db590910155565b6001546001600160a01b0316331480610f4b57506002546001600160a01b031633145b610f675760405162461bcd60e51b815260040161034b906115dc565b8160058281548110610739576107396116a4565b6001546001600160a01b0316331480610f9e57506002546001600160a01b031633145b610fba5760405162461bcd60e51b815260040161034b906115dc565b6001600160a01b03909116600090815260046020526040902055565b6001546000906001600160a01b0316331480610ffc57506002546001600160a01b031633145b6110185760405162461bcd60e51b815260040161034b906115dc565b60006005838154811061102d5761102d6116a4565b60009182526020808320604080516101008082018352600695909502909201805460ff808216151585529581046001600160a01b0316848601819052600160a81b9091049095161515838301526001810154606084015260028101546080840152600381015460a084015260048082015460c085015260059091015460e0840181905285875293529093205492935090918111156111045760405162461bcd60e51b8152602060048201526014602482015273496e73756666696369656e742062616c616e636560601b604482015260640161034b565b6001600160a01b0382166000908152600460205260408120805483929061112c908490611677565b9091555050506001600160a01b03166000908152600460205260409020549392505050565b600260005414156111745760405162461bcd60e51b815260040161034b90611609565b6002600055346111b55760405162461bcd60e51b815260206004820152600c60248201526b16995c9bc819195c1bdcda5d60a21b604482015260640161034b565b6001600160a01b038116158015906111d657506001600160a01b0381163014155b6112125760405162461bcd60e51b815260206004820152600d60248201526c57726f6e67206164647265737360981b604482015260640161034b565b60405130903480156108fc02916000818181858888f1935050505015801561123e573d6000803e3d6000fd5b506001600160a01b03811660009081526004602052604081208054349290611267908490611640565b9091555050600160005550565b6001546001600160a01b031633148061129757506002546001600160a01b031633145b6112b35760405162461bcd60e51b815260040161034b906115dc565b600081116112f55760405162461bcd60e51b815260206004820152600f60248201526e16995c9bc81dda5d1a191c985dd85b608a1b604482015260640161034b565b6001600160a01b0382161580159061131657506001600160a01b0382163014155b6113525760405162461bcd60e51b815260206004820152600d60248201526c57726f6e67206164647265737360981b604482015260640161034b565b6040516001600160a01b0383169082156108fc029083906000818181858888f19350505050158015611388573d6000803e3d6000fd5b505050565b80356001600160a01b0381168114610a5957600080fd5b80358015158114610a5957600080fd5b60006101008083850312156113c857600080fd5b6040519081019067ffffffffffffffff821181831017156113f957634e487b7160e01b600052604160045260246000fd5b81604052809250611409846113a4565b81526114176020850161138d565b6020820152611428604085016113a4565b6040820152606084013560608201526080840135608082015260a084013560a082015260c084013560c082015260e084013560e0820152505092915050565b60006020828403121561147957600080fd5b6114828261138d565b9392505050565b6000806040838503121561149c57600080fd5b6114a58361138d565b946020939093013593505050565b600061010082840312156114c657600080fd5b61148283836113b4565b60008061012083850312156114e457600080fd5b6114ee84846113b4565b94610100939093013593505050565b60006020828403121561150f57600080fd5b5035919050565b6000806040838503121561152957600080fd5b82359150611539602084016113a4565b90509250929050565b602080825282518282018190526000919060409081850190868401855b828110156115cf578151805115158552868101516001600160a01b03168786015285810151151586860152606080820151908601526080808201519086015260a0808201519086015260c0808201519086015260e09081015190850152610100909301929085019060010161155f565b5091979650505050505050565b6020808252601390820152724f6e6c7920666f7220676f7665726e616e636560681b604082015260600190565b6020808252601f908201527f5265656e7472616e637947756172643a207265656e7472616e742063616c6c00604082015260600190565b600082198211156116535761165361168e565b500190565b60008160001904831182151516156116725761167261168e565b500290565b6000828210156116895761168961168e565b500390565b634e487b7160e01b600052601160045260246000fd5b634e487b7160e01b600052603260045260246000fdfea26469706673582212209ec29c423df079e0532b71bff615165be6750bb6c729ad5208f40b70c989b71064736f6c63430008070033",
  "immutableReferences": {},
  "source": "// SPDX-License-Identifier: MIT\r\npragma solidity ^0.8.0;\r\n\r\nimport \"@openzeppelin/contracts/security/ReentrancyGuard.sol\";\r\n\r\ncontract RentContract is ReentrancyGuard {\r\n\r\n    struct rentInfo {\r\n        bool isOccupied;\r\n        address tenant;\r\n        bool opPayed;\r\n        uint256 opDaysLeft;\r\n        uint256 opAmountLeft;\r\n        uint256 paymentDate;\r\n        uint256 area;\r\n        uint256 monthlyPrice;\r\n    }\r\n\r\n    address public owner;\r\n    address payable public landlord;\r\n    \r\n    // current date\r\n    uint256 public today = 31;\r\n    \r\n    // user balances\r\n    mapping(address => uint256) public balances;\r\n    \r\n    // rent contracts inforamtion\r\n    rentInfo[] public rentContracts; \r\n\r\n    modifier onlyOwner {\r\n        require(msg.sender == owner, \"Only for owner\");\r\n        _;\r\n    }\r\n\r\n    modifier onlyGovernance {\r\n        require(msg.sender == owner || msg.sender == landlord, \"Only for governance\");\r\n        _;\r\n    }\r\n\r\n    constructor(address payable _landlord) {\r\n        owner = msg.sender;\r\n        landlord = _landlord;\r\n    }\r\n    \r\n    receive() external payable {}\r\n    fallback() external payable {}\r\n    \r\n    function createRentContract (rentInfo memory _info) public onlyGovernance {\r\n        rentContracts.push(_info);\r\n    }\r\n\r\n    function editRentContract (rentInfo memory _newInfo, uint256 _contractId) public onlyGovernance {\r\n        rentContracts[_contractId] = _newInfo;\r\n    }\r\n\r\n    function deleteRentContract (uint256 _contractId) public onlyGovernance returns (rentInfo[] memory) {\r\n        require(_contractId < rentContracts.length, \"Wrong id\");\r\n        \r\n        uint256 last = rentContracts.length-1;\r\n\r\n        rentContracts[_contractId] = rentContracts[last];\r\n        delete rentContracts[last];\r\n        \r\n        return rentContracts;\r\n    }\r\n\r\n    function signContract(uint256 _contractId, bool _payOpNow) public payable nonReentrant {\r\n        rentInfo memory _rentInfo = rentContracts[_contractId];\r\n        require(!_rentInfo.isOccupied, \"This lot is already occupied\");\r\n        \r\n        uint256 OP = _rentInfo.monthlyPrice * 3;\r\n        \r\n        if (_payOpNow) {\r\n            // 100% \r\n            require(msg.value >= OP, \"Wrong rent payment value\");\r\n            \r\n            payable(address(this)).transfer(OP);\r\n            balances[msg.sender] += msg.value - OP;\r\n        \r\n            _rentInfo.paymentDate = today;\r\n            _rentInfo.opPayed = true;\r\n            \r\n        } else {\r\n            _rentInfo.paymentDate = today;\r\n            _rentInfo.opDaysLeft = 10;\r\n            _rentInfo.opAmountLeft = OP;\r\n            \r\n        }\r\n        _rentInfo.isOccupied = true;\r\n        _rentInfo.tenant = msg.sender;\r\n        \r\n        rentContracts[_contractId] = _rentInfo;\r\n    }\r\n    \r\n    function payOffOp(uint256 _contractId) public nonReentrant {\r\n        rentInfo memory _rentInfo = rentContracts[_contractId];\r\n        \r\n        require(_rentInfo.isOccupied, \"Contract isnt signed\");\r\n        require(!_rentInfo.opPayed, \"Op already payed off\");\r\n        require(_rentInfo.tenant == msg.sender, \"Not your contract\");\r\n        require(balances[msg.sender] >= _rentInfo.opAmountLeft, \"Insufficient balance\");\r\n        \r\n        balances[msg.sender] -= _rentInfo.opAmountLeft;\r\n        \r\n        _rentInfo.opAmountLeft = 0;\r\n        _rentInfo.opPayed = true;\r\n        _rentInfo.opDaysLeft = 0;\r\n        \r\n        rentContracts[_contractId] = _rentInfo;\r\n    }\r\n    \r\n    function terminateContract(uint256 _contractId) public {\r\n        rentInfo memory _rentInfo = rentContracts[_contractId];\r\n        require(_rentInfo.tenant == msg.sender && _rentInfo.isOccupied, \"Not tenant or unsigned contract\");\r\n        \r\n        _rentInfo.isOccupied = false;\r\n        _rentInfo.tenant = address(0);\r\n        _rentInfo.paymentDate = 0;\r\n        \r\n        rentContracts[_contractId] = _rentInfo;\r\n    }\r\n    \r\n    function writeOffRent(uint256 _contractId) public onlyGovernance returns (uint256) {\r\n        rentInfo memory _rentInfo = rentContracts[_contractId];\r\n        address tenant = _rentInfo.tenant;  \r\n        uint256 monthlyPayment = _rentInfo.monthlyPrice;\r\n        \r\n        require(balances[tenant] >= monthlyPayment, \"Insufficient balance\");\r\n\r\n        balances[tenant] -= monthlyPayment;\r\n        return balances[tenant];\r\n    }\r\n    \r\n    function deposit(address _to) public payable nonReentrant {\r\n        require(msg.value > 0, \"Zero deposit\");\r\n        require(_to != address(0) && _to != address(this), \"Wrong address\");\r\n        \r\n        payable(address(this)).transfer(msg.value);\r\n        \r\n        balances[_to] += msg.value;\r\n    }\r\n    \r\n    function setBalance(address _user, uint256 _value) public onlyGovernance {\r\n        balances[_user] = _value;\r\n    } \r\n    \r\n    function withdraw(address _to, uint256 _amount) public payable onlyGovernance { \r\n        require(_amount > 0, \"Zero withdrawal\");\r\n        require(_to != address(0) && _to != address(this), \"Wrong address\");\r\n        \r\n        payable(address(_to)).transfer(_amount);\r\n    }\r\n}",
  "sourcePath": "C:/Users/useless/Desktop/case/contracts/RentContract.sol",
  "compiler": {
    "name": "solc",
    "version": "0.8.7+commit.e28d00a7.Emscripten.clang"
  },
  "schemaVersion": "3.4.1",
  "updatedAt": "2021-08-31T15:37:26.571Z",
  "devdoc": {
    "kind": "dev",
    "methods": {},
    "version": 1
  },
  "userdoc": {
    "kind": "user",
    "methods": {},
    "version": 1
  }
}